{
  "contractName": "MyStringStore",
  "abi": [
    {
      "anonymous": false,
      "inputs": [
        {
          "indexed": true,
          "internalType": "address",
          "name": "_owner",
          "type": "address"
        },
        {
          "indexed": false,
          "internalType": "bool",
          "name": "_stop",
          "type": "bool"
        }
      ],
      "name": "LogEmergencyStop",
      "type": "event"
    },
    {
      "anonymous": false,
      "inputs": [
        {
          "indexed": true,
          "internalType": "address",
          "name": "_owner",
          "type": "address"
        },
        {
          "indexed": false,
          "internalType": "string",
          "name": "_ipfsHash",
          "type": "string"
        },
        {
          "indexed": false,
          "internalType": "string",
          "name": "_title",
          "type": "string"
        },
        {
          "indexed": false,
          "internalType": "string",
          "name": "_description",
          "type": "string"
        },
        {
          "indexed": false,
          "internalType": "string",
          "name": "_tags",
          "type": "string"
        },
        {
          "indexed": false,
          "internalType": "uint256",
          "name": "_uploadedOn",
          "type": "uint256"
        }
      ],
      "name": "LogImageUploaded",
      "type": "event"
    },
    {
      "anonymous": false,
      "inputs": [
        {
          "indexed": true,
          "internalType": "address",
          "name": "previousOwner",
          "type": "address"
        }
      ],
      "name": "OwnershipRenounced",
      "type": "event"
    },
    {
      "anonymous": false,
      "inputs": [
        {
          "indexed": true,
          "internalType": "address",
          "name": "previousOwner",
          "type": "address"
        },
        {
          "indexed": true,
          "internalType": "address",
          "name": "newOwner",
          "type": "address"
        }
      ],
      "name": "OwnershipTransferred",
      "type": "event"
    },
    {
      "stateMutability": "nonpayable",
      "type": "fallback"
    },
    {
      "inputs": [],
      "name": "destroy",
      "outputs": [],
      "stateMutability": "nonpayable",
      "type": "function"
    },
    {
      "inputs": [
        {
          "internalType": "address payable",
          "name": "_recipient",
          "type": "address"
        }
      ],
      "name": "destroyAndSend",
      "outputs": [],
      "stateMutability": "nonpayable",
      "type": "function"
    },
    {
      "inputs": [
        {
          "internalType": "address",
          "name": "",
          "type": "address"
        },
        {
          "internalType": "uint256",
          "name": "",
          "type": "uint256"
        }
      ],
      "name": "ownerToImages",
      "outputs": [
        {
          "internalType": "string",
          "name": "ipfsHash",
          "type": "string"
        },
        {
          "internalType": "string",
          "name": "title",
          "type": "string"
        },
        {
          "internalType": "string",
          "name": "description",
          "type": "string"
        },
        {
          "internalType": "string",
          "name": "tags",
          "type": "string"
        },
        {
          "internalType": "uint256",
          "name": "uploadedOn",
          "type": "uint256"
        }
      ],
      "stateMutability": "view",
      "type": "function",
      "constant": true
    },
    {
      "inputs": [],
      "name": "renounceOwnership",
      "outputs": [],
      "stateMutability": "nonpayable",
      "type": "function"
    },
    {
      "inputs": [
        {
          "internalType": "address",
          "name": "newOwner",
          "type": "address"
        }
      ],
      "name": "transferOwnership",
      "outputs": [],
      "stateMutability": "nonpayable",
      "type": "function"
    },
    {
      "inputs": [
        {
          "internalType": "string",
          "name": "_ipfsHash",
          "type": "string"
        },
        {
          "internalType": "string",
          "name": "_title",
          "type": "string"
        },
        {
          "internalType": "string",
          "name": "_description",
          "type": "string"
        },
        {
          "internalType": "string",
          "name": "_tags",
          "type": "string"
        }
      ],
      "name": "uploadImage",
      "outputs": [
        {
          "internalType": "bool",
          "name": "_success",
          "type": "bool"
        }
      ],
      "stateMutability": "nonpayable",
      "type": "function"
    },
    {
      "inputs": [
        {
          "internalType": "address",
          "name": "_owner",
          "type": "address"
        }
      ],
      "name": "getImageCount",
      "outputs": [
        {
          "internalType": "uint256",
          "name": "",
          "type": "uint256"
        }
      ],
      "stateMutability": "view",
      "type": "function",
      "constant": true
    },
    {
      "inputs": [
        {
          "internalType": "address",
          "name": "_owner",
          "type": "address"
        },
        {
          "internalType": "uint8",
          "name": "_index",
          "type": "uint8"
        }
      ],
      "name": "getImage",
      "outputs": [
        {
          "internalType": "string",
          "name": "_ipfsHash",
          "type": "string"
        },
        {
          "internalType": "string",
          "name": "_title",
          "type": "string"
        },
        {
          "internalType": "string",
          "name": "_description",
          "type": "string"
        },
        {
          "internalType": "string",
          "name": "_tags",
          "type": "string"
        },
        {
          "internalType": "uint256",
          "name": "_uploadedOn",
          "type": "uint256"
        }
      ],
      "stateMutability": "view",
      "type": "function",
      "constant": true
    },
    {
      "inputs": [
        {
          "internalType": "bool",
          "name": "_stop",
          "type": "bool"
        }
      ],
      "name": "emergencyStop",
      "outputs": [],
      "stateMutability": "nonpayable",
      "type": "function"
    }
  ],
  "bytecode": "0x60806040526000600260006101000a81548160ff02191690831515021790555034801561002b57600080fd5b50336000806101000a81548173ffffffffffffffffffffffffffffffffffffffff021916908373ffffffffffffffffffffffffffffffffffffffff1602179055506115168061007b6000396000f3fe608060405234801561001057600080fd5b50600436106100975760003560e01c806383197ef01161006657806383197ef014610124578063ef9588c91461012e578063f2fde38b14610162578063f5074f411461017e578063fdfc88731461019a57610098565b80630ac62e021461009a578063361fad3b146100b657806350e25c72146100e6578063715018a61461011a57610098565b5b005b6100b460048036038101906100af9190611098565b6101ca565b005b6100d060048036038101906100cb9190610fce565b6102ad565b6040516100dd9190611265565b60405180910390f35b61010060048036038101906100fb9190611020565b61034d565b6040516101119594939291906111f6565b60405180910390f35b6101226105c0565b005b61012c6106be565b005b6101486004803603810190610143919061105c565b61074f565b6040516101599594939291906111f6565b60405180910390f35b61017c60048036038101906101779190610fce565b610b01565b005b61019860048036038101906101939190610ff7565b610c50565b005b6101b460048036038101906101af91906110c1565b610cc1565b6040516101c191906111db565b60405180910390f35b60008054906101000a900473ffffffffffffffffffffffffffffffffffffffff1673ffffffffffffffffffffffffffffffffffffffff163373ffffffffffffffffffffffffffffffffffffffff161461022257600080fd5b80600260006101000a81548160ff02191690831515021790555060008054906101000a900473ffffffffffffffffffffffffffffffffffffffff1673ffffffffffffffffffffffffffffffffffffffff167f1fd8a6424996fcb73e71380685f86d34feb317dc811892630fd77cc70046e06a826040516102a291906111db565b60405180910390a250565b6000600260009054906101000a900460ff16156102c957600080fd5b600073ffffffffffffffffffffffffffffffffffffffff168273ffffffffffffffffffffffffffffffffffffffff16141561030357600080fd5b600160008373ffffffffffffffffffffffffffffffffffffffff1673ffffffffffffffffffffffffffffffffffffffff168152602001908152602001600020805490509050919050565b6001602052816000526040600020818154811061036957600080fd5b90600052602060002090600502016000915091505080600001805461038d9061139b565b80601f01602080910402602001604051908101604052809291908181526020018280546103b99061139b565b80156104065780601f106103db57610100808354040283529160200191610406565b820191906000526020600020905b8154815290600101906020018083116103e957829003601f168201915b50505050509080600101805461041b9061139b565b80601f01602080910402602001604051908101604052809291908181526020018280546104479061139b565b80156104945780601f1061046957610100808354040283529160200191610494565b820191906000526020600020905b81548152906001019060200180831161047757829003601f168201915b5050505050908060020180546104a99061139b565b80601f01602080910402602001604051908101604052809291908181526020018280546104d59061139b565b80156105225780601f106104f757610100808354040283529160200191610522565b820191906000526020600020905b81548152906001019060200180831161050557829003601f168201915b5050505050908060030180546105379061139b565b80601f01602080910402602001604051908101604052809291908181526020018280546105639061139b565b80156105b05780601f10610585576101008083540402835291602001916105b0565b820191906000526020600020905b81548152906001019060200180831161059357829003601f168201915b5050505050908060040154905085565b60008054906101000a900473ffffffffffffffffffffffffffffffffffffffff1673ffffffffffffffffffffffffffffffffffffffff163373ffffffffffffffffffffffffffffffffffffffff161461061857600080fd5b60008054906101000a900473ffffffffffffffffffffffffffffffffffffffff1673ffffffffffffffffffffffffffffffffffffffff167ff8df31144d9c2f0f6b59d69b8b98abd5459d07f2742c4df920b25aae33c6482060405160405180910390a260008060006101000a81548173ffffffffffffffffffffffffffffffffffffffff021916908373ffffffffffffffffffffffffffffffffffffffff160217905550565b60008054906101000a900473ffffffffffffffffffffffffffffffffffffffff1673ffffffffffffffffffffffffffffffffffffffff163373ffffffffffffffffffffffffffffffffffffffff161461071657600080fd5b60008054906101000a900473ffffffffffffffffffffffffffffffffffffffff1673ffffffffffffffffffffffffffffffffffffffff16ff5b6060806060806000600260009054906101000a900460ff161561077157600080fd5b600073ffffffffffffffffffffffffffffffffffffffff168773ffffffffffffffffffffffffffffffffffffffff1614156107ab57600080fd5b60008660ff16101580156107c3575060ff8660ff1611155b6107cc57600080fd5b6000600160008973ffffffffffffffffffffffffffffffffffffffff1673ffffffffffffffffffffffffffffffffffffffff168152602001908152602001600020805490501161081b57600080fd5b6000600160008973ffffffffffffffffffffffffffffffffffffffff1673ffffffffffffffffffffffffffffffffffffffff1681526020019081526020016000208760ff1681548110610897577f4e487b7100000000000000000000000000000000000000000000000000000000600052603260045260246000fd5b906000526020600020906005020190508060000181600101826002018360030184600401548480546108c89061139b565b80601f01602080910402602001604051908101604052809291908181526020018280546108f49061139b565b80156109415780601f1061091657610100808354040283529160200191610941565b820191906000526020600020905b81548152906001019060200180831161092457829003601f168201915b505050505094508380546109549061139b565b80601f01602080910402602001604051908101604052809291908181526020018280546109809061139b565b80156109cd5780601f106109a2576101008083540402835291602001916109cd565b820191906000526020600020905b8154815290600101906020018083116109b057829003601f168201915b505050505093508280546109e09061139b565b80601f0160208091040260200160405190810160405280929190818152602001828054610a0c9061139b565b8015610a595780601f10610a2e57610100808354040283529160200191610a59565b820191906000526020600020905b815481529060010190602001808311610a3c57829003601f168201915b50505050509250818054610a6c9061139b565b80601f0160208091040260200160405190810160405280929190818152602001828054610a989061139b565b8015610ae55780601f10610aba57610100808354040283529160200191610ae5565b820191906000526020600020905b815481529060010190602001808311610ac857829003601f168201915b5050505050915095509550955095509550509295509295909350565b60008054906101000a900473ffffffffffffffffffffffffffffffffffffffff1673ffffffffffffffffffffffffffffffffffffffff163373ffffffffffffffffffffffffffffffffffffffff1614610b5957600080fd5b600073ffffffffffffffffffffffffffffffffffffffff168173ffffffffffffffffffffffffffffffffffffffff161415610b9357600080fd5b8073ffffffffffffffffffffffffffffffffffffffff1660008054906101000a900473ffffffffffffffffffffffffffffffffffffffff1673ffffffffffffffffffffffffffffffffffffffff167f8be0079c531659141344cd1fd0a4f28419497f9722a3daafe3b4186f6b6457e060405160405180910390a3806000806101000a81548173ffffffffffffffffffffffffffffffffffffffff021916908373ffffffffffffffffffffffffffffffffffffffff16021790555050565b60008054906101000a900473ffffffffffffffffffffffffffffffffffffffff1673ffffffffffffffffffffffffffffffffffffffff163373ffffffffffffffffffffffffffffffffffffffff1614610ca857600080fd5b8073ffffffffffffffffffffffffffffffffffffffff16ff5b6000600260009054906101000a900460ff1615610cdd57600080fd5b600042905060006040518060a00160405280888152602001878152602001868152602001858152602001838152509050600160003373ffffffffffffffffffffffffffffffffffffffff1673ffffffffffffffffffffffffffffffffffffffff1681526020019081526020016000208190806001815401808255809150506001900390600052602060002090600502016000909190919091506000820151816000019080519060200190610d92929190610e5a565b506020820151816001019080519060200190610daf929190610e5a565b506040820151816002019080519060200190610dcc929190610e5a565b506060820151816003019080519060200190610de9929190610e5a565b506080820151816004015550503373ffffffffffffffffffffffffffffffffffffffff167f4753b7d7d7b6713cb600756bd11cc8bf932ece70274edfbc01931256caaa63be8888888887604051610e449594939291906111f6565b60405180910390a2600192505050949350505050565b828054610e669061139b565b90600052602060002090601f016020900481019282610e885760008555610ecf565b82601f10610ea157805160ff1916838001178555610ecf565b82800160010185558215610ecf579182015b82811115610ece578251825591602001919060010190610eb3565b5b509050610edc9190610ee0565b5090565b5b80821115610ef9576000816000905550600101610ee1565b5090565b6000610f10610f0b846112a5565b611280565b905082815260208101848484011115610f2857600080fd5b610f33848285611359565b509392505050565b600081359050610f4a8161146d565b92915050565b600081359050610f5f81611484565b92915050565b600081359050610f748161149b565b92915050565b600082601f830112610f8b57600080fd5b8135610f9b848260208601610efd565b91505092915050565b600081359050610fb3816114b2565b92915050565b600081359050610fc8816114c9565b92915050565b600060208284031215610fe057600080fd5b6000610fee84828501610f3b565b91505092915050565b60006020828403121561100957600080fd5b600061101784828501610f50565b91505092915050565b6000806040838503121561103357600080fd5b600061104185828601610f3b565b925050602061105285828601610fa4565b9150509250929050565b6000806040838503121561106f57600080fd5b600061107d85828601610f3b565b925050602061108e85828601610fb9565b9150509250929050565b6000602082840312156110aa57600080fd5b60006110b884828501610f65565b91505092915050565b600080600080608085870312156110d757600080fd5b600085013567ffffffffffffffff8111156110f157600080fd5b6110fd87828801610f7a565b945050602085013567ffffffffffffffff81111561111a57600080fd5b61112687828801610f7a565b935050604085013567ffffffffffffffff81111561114357600080fd5b61114f87828801610f7a565b925050606085013567ffffffffffffffff81111561116c57600080fd5b61117887828801610f7a565b91505092959194509250565b61118d81611316565b82525050565b600061119e826112d6565b6111a881856112e1565b93506111b8818560208601611368565b6111c18161145c565b840191505092915050565b6111d581611342565b82525050565b60006020820190506111f06000830184611184565b92915050565b600060a08201905081810360008301526112108188611193565b905081810360208301526112248187611193565b905081810360408301526112388186611193565b9050818103606083015261124c8185611193565b905061125b60808301846111cc565b9695505050505050565b600060208201905061127a60008301846111cc565b92915050565b600061128a61129b565b905061129682826113cd565b919050565b6000604051905090565b600067ffffffffffffffff8211156112c0576112bf61142d565b5b6112c98261145c565b9050602081019050919050565b600081519050919050565b600082825260208201905092915050565b60006112fd82611322565b9050919050565b600061130f82611322565b9050919050565b60008115159050919050565b600073ffffffffffffffffffffffffffffffffffffffff82169050919050565b6000819050919050565b600060ff82169050919050565b82818337600083830152505050565b60005b8381101561138657808201518184015260208101905061136b565b83811115611395576000848401525b50505050565b600060028204905060018216806113b357607f821691505b602082108114156113c7576113c66113fe565b5b50919050565b6113d68261145c565b810181811067ffffffffffffffff821117156113f5576113f461142d565b5b80604052505050565b7f4e487b7100000000000000000000000000000000000000000000000000000000600052602260045260246000fd5b7f4e487b7100000000000000000000000000000000000000000000000000000000600052604160045260246000fd5b6000601f19601f8301169050919050565b611476816112f2565b811461148157600080fd5b50565b61148d81611304565b811461149857600080fd5b50565b6114a481611316565b81146114af57600080fd5b50565b6114bb81611342565b81146114c657600080fd5b50565b6114d28161134c565b81146114dd57600080fd5b5056fea26469706673582212204b95e2cf8f3c96708edbcc5530c98b62c19db57d2a11612e9db45727f393ae9864736f6c63430008010033",
  "immutableReferences": {},
  "source": "pragma solidity ^0.8.0;\r\n\r\n\r\nimport \"./Destructible.sol\";\r\n\r\n\r\ncontract MyStringStore is Destructible {\r\n\r\n    /** \r\n    * @title Represents a single image which is owned by someone. \r\n    */\r\n    struct Image {\r\n        string ipfsHash;        // IPFS hash\r\n        string title;           // Image title\r\n        string description;     // Image description\r\n        string tags;            // Image tags in comma separated format\r\n        uint256 uploadedOn;     // Uploaded timestamp\r\n    }\r\n\r\n    // Maps owner to their images\r\n    mapping (address => Image[]) public ownerToImages;\r\n\r\n    // Used by Circuit Breaker pattern to switch contract on / off\r\n    bool private stopped = false;\r\n\r\n    /**\r\n    * @dev Indicates that a user has uploaded a new image\r\n    * @param _owner The owner of the image\r\n    * @param _ipfsHash The IPFS hash\r\n    * @param _title The image title\r\n    * @param _description The image description\r\n    * @param _tags The image tags\r\n    * @param _uploadedOn The upload timestamp\r\n    */\r\n    event LogImageUploaded(\r\n        address indexed _owner, \r\n        string _ipfsHash, \r\n        string _title, \r\n        string _description, \r\n        string _tags,\r\n        uint256 _uploadedOn\r\n    );\r\n\r\n    /**\r\n    * @dev Indicates that the owner has performed an emergency stop\r\n    * @param _owner The owner of the image\r\n    * @param _stop Indicates whether to stop or resume\r\n    */\r\n    event LogEmergencyStop(\r\n        address indexed _owner, \r\n        bool _stop\r\n    );\r\n\r\n    /**\r\n    * @dev Prevents execution in the case of an emergency\r\n    */\r\n    modifier stopInEmergency { \r\n        require(!stopped); \r\n        _;\r\n    }\r\n\r\n    /**  \r\n    * @dev This function is called for all messages sent to\r\n    * this contract (there is no other function).\r\n    * Sending Ether to this contract will cause an exception,\r\n    * because the fallback function does not have the `payable`\r\n    * modifier.\r\n    */\r\n    fallback() external {}\r\n\r\n    /** \r\n        * @notice associate an image entry with the owner i.e. sender address\r\n        * @dev Controlled by circuit breaker\r\n        * @param _ipfsHash The IPFS hash\r\n        * @param _title The image title\r\n        * @param _description The image description\r\n        * @param _tags The image tag(s)\r\n        */\r\n    function uploadImage(\r\n        string memory _ipfsHash, \r\n        string memory _title, \r\n        string memory _description, \r\n        string memory _tags\r\n    ) public stopInEmergency returns (bool _success) {\r\n            \r\n        //require(bytes(_ipfsHash).length == 46);\r\n        //require(bytes(_title).length > 0 && bytes(_title).length <= 256);\r\n        //require(bytes(_description).length < 1024);\r\n        //require(bytes(_tags).length > 0 && bytes(_tags).length <= 256);\r\n\r\n        uint256 uploadedOn = block.timestamp;\r\n        Image memory image = Image(\r\n            _ipfsHash,\r\n            _title,\r\n            _description,\r\n            _tags,\r\n            uploadedOn\r\n        );\r\n\r\n        ownerToImages[msg.sender].push(image);\r\n\r\n        emit LogImageUploaded(\r\n            msg.sender,\r\n            _ipfsHash,\r\n            _title,\r\n            _description,\r\n            _tags,\r\n            uploadedOn\r\n        );\r\n\r\n        _success = true;\r\n    }\r\n\r\n    /** \r\n    * @notice Returns the number of images associated with the given address\r\n    * @dev Controlled by circuit breaker\r\n    * @param _owner The owner address\r\n    * @return The number of images associated with a given address\r\n    */\r\n    function getImageCount(address _owner) \r\n        public view \r\n        stopInEmergency \r\n        returns (uint256) \r\n    {\r\n        require(_owner != 0x0000000000000000000000000000000000000000);\r\n        return ownerToImages[_owner].length;\r\n    }\r\n\r\n    /** \r\n    * @notice Returns the image at index in the ownership array\r\n    * @dev Controlled by circuit breaker\r\n    * @param _owner The owner address\r\n    * @param _index The index of the image to return\r\n    * @return _ipfsHash The IPFS hash\r\n    * @return _title The image title\r\n    * @return _description The image description\r\n    * @return _tags image Then image tags\r\n    * @return _uploadedOn The uploaded timestamp\r\n    */ \r\n    function getImage(address _owner, uint8 _index) \r\n        public stopInEmergency view returns (\r\n        string memory _ipfsHash, \r\n        string memory _title, \r\n        string memory _description, \r\n        string memory _tags,\r\n        uint256 _uploadedOn\r\n    ) {\r\n\r\n        require(_owner != 0x0000000000000000000000000000000000000000);\r\n        require(_index >= 0 && _index <= 2**8 - 1);\r\n        require(ownerToImages[_owner].length > 0);\r\n\r\n        Image storage image = ownerToImages[_owner][_index];\r\n        \r\n        return (\r\n            image.ipfsHash, \r\n            image.title, \r\n            image.description, \r\n            image.tags, \r\n            image.uploadedOn\r\n        );\r\n    }\r\n\r\n    /**\r\n    * @notice Pause the contract. \r\n    * It stops execution if certain conditions are met and can be useful \r\n    * when new errors are discovered. \r\n    * @param _stop Switch the circuit breaker on or off\r\n    */\r\n    function emergencyStop(bool _stop) public onlyOwner {\r\n        stopped = _stop;\r\n        emit LogEmergencyStop(owner, _stop);\r\n    }\r\n}\r\n",
  "sourcePath": "D:/fiverr/Assignment/contracts/MyStringStore.sol",
  "compiler": {
    "name": "solc",
    "version": "0.8.1+commit.df193b15.Emscripten.clang"
  },
  "schemaVersion": "3.3.4",
  "updatedAt": "2021-05-05T19:35:03.163Z",
  "networkType": "ethereum",
  "devdoc": {
    "events": {
      "LogEmergencyStop(address,bool)": {
        "details": "Indicates that the owner has performed an emergency stop",
        "params": {
          "_owner": "The owner of the image",
          "_stop": "Indicates whether to stop or resume"
        }
      },
      "LogImageUploaded(address,string,string,string,string,uint256)": {
        "details": "Indicates that a user has uploaded a new image",
        "params": {
          "_description": "The image description",
          "_ipfsHash": "The IPFS hash",
          "_owner": "The owner of the image",
          "_tags": "The image tags",
          "_title": "The image title",
          "_uploadedOn": "The upload timestamp"
        }
      }
    },
    "kind": "dev",
    "methods": {
      "destroy()": {
        "details": "Transfers the current balance to the owner and terminates the contract."
      },
      "emergencyStop(bool)": {
        "params": {
          "_stop": "Switch the circuit breaker on or off"
        }
      },
      "getImage(address,uint8)": {
        "details": "Controlled by circuit breaker",
        "params": {
          "_index": "The index of the image to return",
          "_owner": "The owner address"
        },
        "returns": {
          "_description": "The image description",
          "_ipfsHash": "The IPFS hash",
          "_tags": "image Then image tags",
          "_title": "The image title",
          "_uploadedOn": "The uploaded timestamp"
        }
      },
      "getImageCount(address)": {
        "details": "Controlled by circuit breaker",
        "params": {
          "_owner": "The owner address"
        },
        "returns": {
          "_0": "The number of images associated with a given address"
        }
      },
      "renounceOwnership()": {
        "details": "Allows the current owner to relinquish control of the contract."
      },
      "transferOwnership(address)": {
        "details": "Allows the current owner to transfer control of the contract to a newOwner.",
        "params": {
          "newOwner": "The address to transfer ownership to."
        }
      },
      "uploadImage(string,string,string,string)": {
        "details": "Controlled by circuit breaker",
        "params": {
          "_description": "The image description",
          "_ipfsHash": "The IPFS hash",
          "_tags": "The image tag(s)",
          "_title": "The image title"
        }
      }
    },
    "version": 1
  },
  "userdoc": {
    "kind": "user",
    "methods": {
      "emergencyStop(bool)": {
        "notice": "Pause the contract.  It stops execution if certain conditions are met and can be useful  when new errors are discovered. "
      },
      "getImage(address,uint8)": {
        "notice": "Returns the image at index in the ownership array"
      },
      "getImageCount(address)": {
        "notice": "Returns the number of images associated with the given address"
      },
      "uploadImage(string,string,string,string)": {
        "notice": "associate an image entry with the owner i.e. sender address"
      }
    },
    "version": 1
  }
}